:1000000012C02CC02BC02AC029C028C027C026C0BF
:1000100025C006C323C022C021C020C01FC01EC0EF
:100020001DC01CC01BC011241FBECFE5D4E0DEBF25
:10003000CDBF10E0A0E6B0E0EEE3F7E002C005902F
:100040000D92AA36B107D9F710E0AAE6B0E001C0D8
:100050001D92A13AB107E1F70DD06FC3D1CF81E076
:1000600088BB8FE287BB15BA14BA12BA82EF81BB84
:1000700015BE0895BF92CF92DF92EF92FF920F9339
:100080001F93CF93DF9381E088BB8FE287BB15BAC4
:1000900014BA12BA82EF81BB15BEC4D10FD2E7D118
:1000A000D4D196D18DE590E0D3D11092710078949F
:1000B00092E3B92E80E2C82E8EE4D82E82E4BBD122
:1000C0008BE4B9D189E4B7D184E5B5D184E3B3D168
:1000D00085E5B1D18DE0AFD18091990002C0882330
:1000E00011F45F9BFCCF882329F010929900B09205
:1000F000710003C0A4D180937100809171009BD1E5
:100100008DE099D1809171008333D1F1843328F44B
:10011000813341F08233F1F530C08433A1F185336E
:10012000C9F535C002E710E07801C0E0D0E0CE01AB
:10013000CAD2F7018083CE010196C5D2F70181832F
:10014000CE010296C0D2F7018283239683E090E02D
:10015000E80EF91ECE31D10551F7F80180816BD13F
:10016000F801818168D1F801828165D10D5F1F4F4F
:10017000F0E000391F0789F70DC015D163D00AC020
:100180008DE590E002C086E090E062D103C017D216
:1001900085E0A5D1C6010197F1F790CF8EE180935C
:1001A000910086E090E054D108952AD280916500B4
:1001B00080936A0085E093D180E197E228EC30E0FB
:1001C000F9013197F1F70197D9F780916400809395
:1001D0006A0085E084D180E197E228EC30E0F90103
:1001E0003197F1F70197D9F78091630080936A0006
:1001F00085E075D180E197E228EC30E0F901319794
:10020000F1F70197D9F78091620080936A0085E049
:1002100066D180E197E228EC30E0F9013197F1F7FF
:100220000197D9F78091610080936A0085E057D1EA
:1002300080E197E228EC30E0F9013197F1F701977E
:10024000D9F708958DE590E003D1AFDFA7DF82E70E
:10025000F2D08DE0F0D04091970020919D00309138
:100260009E005091920060ED77E009C0442321F098
:100270005F5F40E028EC30E0CB010197F1F75530AB
:1002800038F480919A0090919B00883C910570F31E
:100290004093970030939E0020939D0050939200CE
:1002A0008AE08093910020919000822F90E040910D
:1002B0009A0050919B00FC01EE0FFF1FE80FF91F01
:1002C000EE58FF4F220F220F252B208380919A009A
:1002D00090919B0081838091A000828386E4ABD0C3
:1002E0008DE0A9D080E7A7D080919000805DA3D059
:1002F00083E7A1D080919A0090919B006AE070E022
:10030000F5D1CB016AE070E0F1D1805D94D08091AD
:100310009A0090919B006AE070E0E8D1805D8BD0FC
:1003200084E789D08091A0006AE0D4D1805D83D039
:100330008091A0006AE0CED1892F805D7CD08DE0D5
:100340007AD02091900030E0C901880F991F820F68
:10035000931FFC01EE58FF4F6081ADD120919000BA
:1003600030E0C901880F991F820F931FFC01EE58DE
:10037000FF4F618101969FD12091900030E0C9012B
:10038000880F991F820F931FFC01EE58FF4F628167
:10039000029691D1809190008F5F809390008DE5BF
:1003A00090E056D0089514D084E18093910010928B
:1003B00090001092920010929B0010929A0010925E
:1003C000A00010929E0010929D0010929700089538
:1003D00010929700089590919600909393008091C9
:1003E000940080939600309195003093940020B350
:1003F0002C70209395009817A1F4931791F49217FD
:1004000081F480919800891761F09093980092FD93
:1004100003C081E08093970093FD03C081E0809347
:10042000990008951BB888E18AB986E880BD10BCA0
:1004300083E389B908955D9BFECF8CB908958CB193
:10044000089508959BBD8ABD08951BBC1ABC0895EC
:100450002BEF3FEFAC01429FC001439F900D529F95
:10046000900D112482519D4F9BBD8ABD089583E05C
:1004700083BF12BE80EA8FBD82E18EBD1DBC1CBC55
:100480008FE187BD80E486BD1BBC1ABC19BC18BCBB
:1004900012BC80E685BD14BC13BC81E089BF1092FC
:1004A0009F0010929C0010929B0010929A00109254
:1004B000A000089580E58DB91EB8089510929B00A4
:1004C00010929A001092A00080E58DB91EB8089590
:1004D0008FB108958FB9779BFECF8FB10895C098E3
:1004E00080916F008FB9779BFECF8FB180916E00A6
:1004F0008FB9779BFECF8FB180916D008FB9779BBD
:10050000FECF8FB180916C008FB9779BFECF8FB1FA
:1005100080916B008FB9779BFECF8FB180916A007D
:100520008FB9779BFECF8FB1C09A089580919200CA
:1005300020E630E0F901E80FF11D808180936F0023
:1005400080919A0090919B0064E670E0CFD0FB010F
:10055000E20FF31F808180936E0080919A0090914A
:100560009B006AE070E0C2D0CB016AE070E0BED0D0
:10057000F901E80FF91F808180936D0080919A0046
:1005800090919B006AE070E0B1D0F901E80FF91F8B
:10059000808180936C008091A0006AE09BD0F9017B
:1005A000E80FF11D808180936B008091A00092D0B4
:1005B000290F311DF901808180936A00089580918F
:1005C000A0008F5F8093A0008091A0008436B0F0DF
:1005D0001092A00080919A0090919B0001969093B8
:1005E0009B0080939A0080919A0090919B00885E76
:1005F000934020F010929B0010929A0097DF08958C
:10060000C0988FEF80936F0080936E0080936D0091
:1006100080936C0080936B0080936A00C09A089569
:100620001F920F920FB60F9211242F933F934F9367
:100630005F936F937F938F939F93AF93BF93EF934A
:10064000FF9385E082BF80919F008F5F80939F0022
:1006500080919F008530A0F010929F0080919D00B6
:1006600090919E00009731F0019790939E008093A7
:100670009D0001C0B0DE809191008E3109F49FDFB2
:1006800080919C0090E0019666E070E043D08093FA
:100690009C0025DFFF91EF91BF91AF919F918F91CA
:1006A0007F916F915F914F913F912F910F900FBE6E
:1006B0000F901F901895E199FECF9FBB8EBB6DBB2D
:1006C000E29AE19A0895E199FECF9FBB8EBBE09A32
:1006D0008DB30895991B79E004C0991F961708F00F
:1006E000961B881F7A95C9F780950895AA1BBB1B96
:1006F00051E107C0AA1FBB1FA617B70710F0A61B22
:10070000B70B881F991F5A95A9F780959095BC0142
:10071000CD01089597FB092E07260AD077FD04D056
:10072000E5DF06D000201AF4709561957F4F08959B
:0E073000F6F7909581959F4F0895F894FFCFAE
:0A073E00C0F9A4B0999282F88090EF
:00000001FF
